:100000000C942A000C948E050C9447000C94470025
:100010000C9447000C9447000C9447000C94470044
:100020000C9447000C9447000C9447000C94470034
:100030000C9447000C9447000C9447000C94470024
:100040000C9447000C9447000C9447000C94470014
:100050000C94470011241FBECFE5D8E0DEBFCDBF12
:1000600010E0A0E6B0E0ECE8F6E102C005900D92E9
:10007000AC37B107D9F710E0ACE7B0E001C01D9292
:10008000A539B107E1F70E9455090C94440B0C9473
:10009000000010926F00209168003091690040913B
:1000A0006A0050916B0060916C0070916D008091BE
:1000B0006E0090E00E94A60460916400709165005B
:1000C00080916600909167004FEF0E941605609145
:1000D000600070916100809162009091630042E342
:1000E0000E9416058FEF93E2A4EF81509040A0404C
:1000F000E1F700C0000084E080936F002091680069
:100100003091690040916A0050916B0060916C00E1
:1001100070916D0080916E0094E00E94A604609141
:10012000640070916500809166009091670040E0E6
:100130000E941605609160007091610080916200DC
:100140009091630040E00E941605089510926F00A0
:10015000209168003091690040916A0050916B00D5
:1001600060916C0070916D0080916E0090E00E9433
:10017000A604609164007091650080916600909182
:1001800067004FEF0E94160560916000709161005A
:1001900080916200909163004AE50E9416058FEFFE
:1001A00093E2A4EF81509040A040E1F700C000002E
:1001B00084E080936F002091680030916900409145
:1001C0006A0050916B0060916C0070916D0080919D
:1001D0006E0094E00E94A604609164007091650036
:1001E000809166009091670040E00E941605609142
:1001F000600070916100809162009091630040E026
:100200000E941605089510926F00209168003091A9
:10021000690040916A0050916B0060916C00709190
:100220006D0080916E0090E00E94A60460916400D1
:100230007091650080916600909167004FEF0E9479
:10024000160560916000709161008091620090914C
:10025000630044EB0E9416058FEF93E2A4EF8150F8
:100260009040A040E1F700C0000084E080936F0060
:10027000209168003091690040916A0050916B00B4
:1002800060916C0070916D0080916E0094E00E940E
:10029000A604609164007091650080916600909161
:1002A000670040E00E941605609160007091610057
:1002B000809162009091630040E00E9416050895CD
:1002C00010926F00209168003091690040916A009F
:1002D00050916B0060916C0070916D0080916E0088
:1002E00090E00E94A6046091640070916500809186
:1002F00066009091670042E30E94160560916000DD
:100300007091610080916200909163004FEF0E94B4
:1003100016058FEF93E2A4EF81509040A040E1F7E3
:1003200000C0000084E080936F002091680030914D
:10033000690040916A0050916B0060916C0070916F
:100340006D0080916E0094E00E94A60460916400AC
:1003500070916500809166009091670040E00E9476
:10036000160560916000709161008091620090912B
:10037000630040E00E941605089510926F002091DE
:1003800068003091690040916A0050916B00609163
:100390006C0070916D0080916E0090E00E94A60448
:1003A0006091640070916500809166009091670093
:1003B0004AE50E941605609160007091610080918D
:1003C0006200909163004FEF0E9416058FEF93E259
:1003D000A4EF81509040A040E1F700C0000084E00D
:1003E00080936F00209168003091690040916A000D
:1003F00050916B0060916C0070916D0080916E0067
:1004000094E00E94A6046091640070916500809160
:1004100066009091670040E00E94160560916000C0
:1004200070916100809162009091630040E00E94B1
:100430001605089510926F002091680030916900B0
:1004400040916A0050916B0060916C0070916D005A
:1004500080916E0090E00E94A6046091640070910B
:100460006500809166009091670044EB0E9416053C
:1004700060916000709161008091620090916300D2
:100480004FEF0E9416058FEF93E2A4EF815090404A
:10049000A040E1F700C0000084E080936F0020914D
:1004A00068003091690040916A0050916B00609142
:1004B0006C0070916D0080916E0094E00E94A60423
:1004C0006091640070916500809166009091670072
:1004D00040E00E941605609160007091610080917B
:1004E00062009091630040E00E9416050895AF926B
:1004F000BF92CF92DF92EF92FF920F931F931092D1
:100500006E001092830010928400E3E8F0E083E034
:10051000829313828483158280E895E2A0E0B0E0A4
:1005200080879187A287B38717820E940408E09092
:100530006400F09065000091660010916700A09043
:100540006000B0906100C0906200D0906300209184
:1005500068003091690040916A0050916B00609191
:100560006C0070916D0080916E0090916F000E9400
:1005700045041F910F91FF90EF90DF90CF90BF90B7
:10058000AF9008950E94FA0880939400843309F490
:100590004DC08533B0F1863309F442C08633E8F1AB
:1005A000823409F479C0863409F443C084E080932E
:1005B0006F00209168003091690040916A0050916D
:1005C0006B0060916C0070916D0080916E0094E002
:1005D0000E94A6046091640070916500809166009D
:1005E0009091670040E00E94160560916000709154
:1005F0006100809162009091630040E00E941605C6
:100600000895823381F0833318F00E9460010895C9
:10061000813361F60E941A0208950E94A60008958F
:100620000E94490008950E94BD0108950E9403019F
:10063000089510926F0020916800309169004091F8
:100640006A0050916B0060916C0070916D00809118
:100650006E0090E00E94A6046091640070916500B5
:1006600080916600909167004FEF0E94160560919F
:1006700060007091610080916200909163004FEF83
:100680000E9416058FEF93E2A4EF81509040A040A6
:10069000E1F700C000008ACF81E080936F002091D5
:1006A00068003091690040916A0050916B00609140
:1006B0006C0070916D0080916E0091E0CBCF109234
:1006C0006F00209168003091690040916A0050915C
:1006D0006B0060916C0070916D0080916E0090E0F5
:1006E0000E94A6046091640070916500809166008C
:1006F000909167004FEF0E94160560916000709125
:10070000610080916200909163004FEF0E94160596
:100710008FEF93E2A4EF81509040A040E1F700C03A
:10072000000084E080936F002091680030916900A0
:1007300040916A0050916B0060916C0070916D0067
:1007400080916E0094E00E94A60460916400709114
:100750006500809166009091670040E00E94160558
:1007600060916000709161008091620090916300DF
:1007700040E00E941605089581E080936F0020916B
:1007800068003091690040916A0050916B0060915F
:100790006C0070916D0080916E0091E00E94A60443
:1007A000609164007091650080916600909167008F
:1007B0004FEF0E941605609160007091610080917A
:1007C0006200909163004FEF0E9416058FEF93E255
:1007D000A4EF81509040A040E1F700C0000084E009
:1007E00080936F00209168003091690040916A0009
:1007F00050916B0060916C0070916D0080916E0063
:1008000094E00E94A604609164007091650080915C
:1008100066009091670040E00E94160560916000BC
:1008200070916100809162009091630040E00E94AD
:100830001605089584E080936F0020916800309140
:10084000690040916A0050916B0060916C0070915A
:100850006D0080916E0094E00E94A6046091640097
:1008600070916500809166009091670040E00E9461
:100870001605609160007091610080916200909116
:10088000630040E00E94160508954F925F926F92B8
:100890007F92AF92BF92CF92DF92EF92FF920F932F
:1008A0001F93CF93DF93CDB7DEB728970FB6F89499
:1008B000DEBF0FBECDBF29833A834B835C836D833C
:1008C0007E838F839887270138017601650109812E
:1008D0001A81C801642F42E00E941F05C8016C8183
:1008E00042E00E941F05C8016D8142E00E941F0581
:1008F000C8016E8142E00E941F05C301B2010E943F
:100900001D06C701B6010E941D06C301B20146E0E3
:1009100020E00E944907C701B60146E020E00E949E
:10092000490728960FB6F894DEBF0FBECDBFDF9102
:10093000CF911F910F91FF90EF90DF90CF90BF90DC
:10094000AF907F906F905F904F900895DF92EF92FD
:10095000FF920F931F93CF93DF93CDB7DEB7289706
:100960000FB6F894DEBF0FBECDBF29833A834B8309
:10097000D52E5C83E62E6D83F72E7E838F8398873A
:1009800009811A818823C1F49130D9F1913010F591
:10099000C801642F41E00E945505C8016D2D40E05B
:1009A0000E945505C8016E2D41E00E945505C80101
:1009B0006F2D40E00E94550528960FB6F894DEBFD3
:1009C0000FBECDBFDF91CF911F910F91FF90EF90A0
:1009D000DF900895943081F7C801642F40E00E94B1
:1009E0005505C8016D2D40E00E945505C8016E2DCA
:1009F00040E00E945505C8016F2D40E00E9455055A
:100A0000DBCFC801642F40E00E945505C8016D2D61
:100A100041E00E945505C8016E2D40E00E94550539
:100A2000C8016F2D41E00E945505C6CF662311F421
:100A30004CBF0895613009F0089543BD0895FC014D
:100A4000413019F1413078F4218181E090E002C019
:100A5000880F991F6A95E2F7809528232183928158
:100A6000982392830895423009F00895218181E00E
:100A700090E002C0880F991F6A95E2F7282B218326
:100A800092818095892382830895218181E090E07D
:100A900002C0880F991F6A95E2F7982F90959223CC
:100AA00091839281982B92830895FC01442361F4F1
:100AB000228181E090E002C0880F991F6A95E2F7D9
:100AC00080958223828308954130E9F7228181E075
:100AD00090E002C0880F991F6A95E2F7282B2283C5
:100AE0000895FC01208181E090E0062E02C0880F6D
:100AF000991F0A94E2F730E08223932302C0959570
:100B000087956A95E2F70895FC0161830895FC01D9
:100B100062830895FC01828180E008951F920F9204
:100B20000FB60F9211242F933F934F935F936F93C0
:100B30007F938F939F93AF93BF93EF93FF93E09136
:100B40008000F0918100309709F00995FF91EF91B5
:100B5000BF91AF919F918F917F916F915F914F91D5
:100B60003F912F910F900FBE0F901F9018958130DD
:100B7000F9F0813078F46130A1F1613008F043C0C0
:100B800085B78E7F85BF85B78D7F85BF8BB7806426
:100B90008BBF0895823009F008956230B9F0633058
:100BA00019F484B7806484BF8BB780628BBF0895CB
:100BB000613081F06130E0F485B78B7F85BF85B708
:100BC000877F85BF8BB780688BBF089584B78F7B85
:100BD00084BFEACF85B7886085BF85B78B7F85BF27
:100BE000F1CF85B7816085BF85B78D7F85BFCECFBB
:100BF0006230E1F0633031F785B7886085BF85B733
:100C0000846085BFDFCF623051F0633009F0BECF22
:100C100085B7816085BF85B7826085BFB7CF85B74F
:100C20008E7F85BF85B7826085BFB0CF85B7877F50
:100C300085BF85B7846085BFC5CF6623E9F4715051
:100C4000743080F120E0873009F47DC0883008F0EE
:100C50004DC0833009F471C0843009F46BC0813019
:100C600009F460C0913009F44AC0923039F123BFD1
:100C70008FB780688FBF08956130D1F7715074309D
:100C8000B8F020E0843009F464C08530E0F48230AC
:100C900009F465C0833008F042C08130F1F421606E
:100CA000297F1BC0E72FF0E0E059FF4F2081CBCF19
:100CB000E72FF0E0EC58FF4F2081E4CF89B7826046
:100CC00089BF23BFD5CF863009F446C0863020F1D6
:100CD0008730E1F1883009F42760913031F19230AA
:100CE00099F025BD8FB780688FBF0895893041F195
:100CF000893078F08A3009F0B5CF2760B3CF89B753
:100D0000816089BF23BFB4CF89B7806889BF25BD03
:100D1000E9CF287F2560A6CF23602B7FDECF287FF9
:100D20002260DBCF2160297F9DCF89B7806489BF96
:100D300025BDD8CF23602B7F95CF287F226092CF0F
:100D40002E7F26608FCF2C7F24608CCF2E7F266055
:100D5000C4CF2C7F2460C1CF287F2560BECF88E020
:100D600082BD287F2560B9CF662311F44CBF08955A
:100D7000613009F0089543BD0895CF93C42F6623D1
:100D800079F42CBF86E390E063E042E00E941F0507
:100D9000C230E1F0C33041F1C13069F1CF91089523
:100DA0006130E1F723BD80E390E067E042E00E941C
:100DB0001F05C23039F1C33081F0C13079F785B5F4
:100DC0008F7D85BD85B5806185BDE8CF83B78062A5
:100DD00083BF83B78F7E83BFE1CF85B5806285BD3A
:100DE00085B5806185BDDACF83B7806283BF83B765
:100DF000806183BFD3CF83B78F7D83BF83B780618B
:100E000083BFCCCF85B5806285BD85B58F7E85BD1E
:100E1000C5CFCF93C42F6623A9F42CBF86E390E0FF
:100E200063E042E00E941F05C43019F1C53011F0A3
:100E3000CC2331F483B78F7E83BF83B7806283BFB7
:100E4000CF9108956130E1F723BD80E390E067E042
:100E500042E00E941F05C430A1F0C53011F0CC2340
:100E600079F785B58F7E85BD85B5806285BDCF91CB
:100E7000089583B7806183BF83B7806283BFCF91BA
:100E8000089585B5806185BD85B5806285BDCF91AA
:100E90000895CF93C42F6623A9F42CBF86E390E076
:100EA00063E042E00E941F05C63021F0C73049F1DF
:100EB000CC2331F483B78F7E83BF83B7806283BF37
:100EC000CF9108956130E1F723BD80E390E067E0C2
:100ED00042E00E941F05C63021F0C73051F0CC23FC
:100EE00079F785B58F7E85BD85B5806285BDCF914B
:100EF000089585B5806185BD85B5806285BDCF913A
:100F0000089583B7806183BF83B7806283BFCF9129
:100F100008951F920F920FB60F9211242F933F93B3
:100F20004F935F936F937F938F939F93AF93BF93F1
:100F3000EF93FF93E0918E00F0918F00309709F0CE
:100F40000995FF91EF91BF91AF919F918F917F9103
:100F50006F915F914F913F912F910F900FBE0F9026
:100F60001F9018951F920F920FB60F9211242F9376
:100F70003F934F935F936F937F938F939F93AF9321
:100F8000BF93EF93FF93E0919000F0919100309721
:100F900009F00995FF91EF91BF91AF919F918F91CA
:100FA0007F916F915F914F913F912F910F900FBE65
:100FB0000F901F9018951F920F920FB60F92112449
:100FC0002F933F934F935F936F937F938F939F9351
:100FD000AF93BF93EF93FF93E0919200F091930052
:100FE000309709F00995FF91EF91BF91AF919F91D3
:100FF0008F917F916F915F914F913F912F910F90C2
:101000000FBE0F901F901895EF92FF920F931F93B2
:10101000CF93DF93E0918200E150E33030F5F0E0D0
:10102000E858FF4FC08180918300813019F18130F1
:1010300090F1823009F47EC021E060E0D0E090E0E1
:1010400080918400813009F4922F80918500843052
:1010500009F4AEC0853008F053C0823009F4A6C050
:10106000833008F49AC0C06254C0C0E0809183000D
:101070008130E9F660918A0070918B0080918C003C
:1010800090918D000E94530A20E030E040E851E446
:101090000E94E10A5DC060918A0070918B0080918E
:1010A0008C0090918D000E94530A20E030E040E0D7
:1010B00051E40E94E10A9B01AC0160E074E284E724
:1010C0009BE40E94BF0920E030E040E05FE30E9423
:1010D0005A097B018C01982F4E2D5F2D692F712F9E
:1010E000CB01BA010E94270AD72F8E2D9F2DA02F4A
:1010F000B12FBC01CD010E94270A23E092E0A0CFCE
:10110000863009F451C0863008F44CC0873009F4A9
:10111000C06E80918600843009F4C4609BB9C0BD64
:10112000D0BD69B9CAB9DF91CF911F910F91FF90DE
:10113000EF90089560918A0070918B0080918C00EF
:1011400090918D000E94530A9B01AC010E945B09A3
:101150009B01AC0160E074E284E79BE40E94BF095C
:1011600020E030E040E05FE30E945A097B018C01FF
:10117000982F4E2D5F2D692F712FCB01BA010E9440
:10118000270AD72F8E2D9F2DA02FB12FBC01CD0167
:101190000E94270A21E090E053CF813009F0B9CFB7
:1011A000C068B7CFC06AB5CFC066B3CFC064B1CF97
:1011B000C06CAFCF5D9BFECF20918600243039F408
:1011C0004AB19C01207031704E7F432B4AB98CB9D3
:1011D00008955D9B05C020918600243011F08CB9E4
:1011E00008954AB19C01207031704E7F432B4AB95B
:1011F0008CB9F6CF5F9BFECF8BB18C7159F4809187
:101200008600843069F020E030E08CB190E0822BE1
:10121000932B08955C9B0EC083E080938900EFCFF1
:101220002AB130E0227030703695322F2227379560
:101230002795EBCF5B9B04C082E080938900DFCFD2
:101240005A9BDDCF81E080938900D9CF5F9907C099
:1012500020E030E08CB190E0822B932B08958BB18D
:101260008C7129F05C9B15C083E08093890080918C
:101270008600843069F72AB130E0227030703695EC
:10128000322F2227379527958CB190E0822B932B14
:1012900008955B9906C05A9BEACF81E0809389004C
:1012A000E6CF82E080938900E2CF0E9477020E941D
:1012B000C202FDCF5058BB27AA270ED048C139D152
:1012C00030F03ED120F031F49F3F11F41EF42EC1D6
:1012D0000EF4E095E7FB24C1E92F4AD180F3BA1759
:1012E000620773078407950718F071F49EF562C1D1
:1012F0000EF4E0950B2EBA2FA02D0B01B901900131
:101300000C01CA01A0011124FF27591B99F0593F74
:1013100050F4503E68F11A16F040A22F232F342FBC
:101320004427585FF3CF469537952795A795F0400A
:101330005395C9F77EF41F16BA0B620B730B840B1F
:10134000BAF09150A1F0FF0FBB1F661F771F881FD7
:10135000C2F70EC0BA0F621F731F841F48F487952F
:1013600077956795B795F7959E3F08F0B3CF93951E
:10137000880F08F09927EE0F9795879508950CD060
:10138000E6C0DED040F0D5D030F021F45F3F19F058
:10139000C7C0511110C1CAC0EBD098F39923C9F34B
:1013A0005523B1F3951B550BBB27AA27621773076B
:1013B000840738F09F5F5F4F220F331F441FAA1F1F
:1013C000A9F333D00E2E3AF0E0E830D091505040DF
:1013D000E695001CCAF729D0FE2F27D0660F771F8D
:1013E000881FBB1F261737074807AB07B0E809F06F
:1013F000BB0B802DBF01FF2793585F4F2AF09E3F04
:10140000510568F08DC0D7C05F3FECF3983EDCF328
:10141000869577956795B795F7959F5FC9F7880F7C
:10142000911D9695879597F90895E1E0660F771FCE
:10143000881FBB1F621773078407BA0720F0621B5F
:10144000730B840BBA0BEE1F88F7E095089598D0C4
:1014500088F09F5790F0B92F9927B751A0F0D1F09D
:10146000660F771F881F991F1AF0BA95C9F712C027
:10147000B13081F09FD0B1E008959CC0672F782FE4
:101480008827B85F39F0B93FCCF386957795679593
:10149000B395D9F73EF490958095709561957F4FFF
:1014A0008F4F9F4F0895E89409C097FB3EF49095A5
:1014B0008095709561957F4F8F4F9F4F9923A9F02D
:1014C000F92F96E9BB279395F695879577956795BC
:1014D000B795F111F8CFFAF4BB0F11F460FF1BC000
:1014E0006F5F7F4F8F4F9F4F16C0882311F096E993
:1014F00011C0772321F09EE8872F762F05C0662341
:1015000071F096E8862F70E060E02AF09A95660FF9
:10151000771F881FDAF7880F9695879597F90895B2
:1015200097F99F6780E870E060E008959FEF80EC96
:10153000089500240A941616170618060906089539
:1015400000240A9412161306140605060895092E9F
:101550000394000C11F4882352F0BB0F40F4BF2B0E
:1015600011F460FF04C06F5F7F4F8F4F9F4F08954E
:1015700057FD9058440F551F59F05F3F71F0479544
:10158000880F97FB991F61F09F3F79F08795089529
:10159000121613061406551FF2CF4695F1DF08C048
:1015A000161617061806991FF1CF86957105610565
:1015B00008940895E894BB2766277727CB0197F90D
:1015C00008950BD0C4CFB5DF28F0BADF18F095230B
:1015D00009F0A6CFABCF1124EECFCADFA0F3959FC1
:1015E000D1F3950F50E0551F629FF001729FBB270A
:1015F000F00DB11D639FAA27F00DB11DAA1F649FB6
:101600006627B00DA11D661F829F2227B00DA11D68
:10161000621F739FB00DA11D621F839FA00D611DEE
:10162000221F749F3327A00D611D231F849F600D0F
:10163000211D822F762F6A2F11249F5750408AF048
:10164000E1F088234AF0EE0FFF1FBB1F661F771FD4
:10165000881F91505040A9F79E3F510570F060CF10
:10166000AACF5F3FECF3983EDCF3869577956795BC
:10167000B795F795E7959F5FC1F7FE2B880F911DF2
:0C1680009695879597F90895F894FFCF90
:10168C0001040800000408003900000102030000F6
:0C169C00080048400800484008101800F2
:00000001FF
